{
  "_format": "hh-sol-artifact-1",
  "contractName": "KlubsContentsNFT",
  "sourceName": "contracts/KlubsContentsNFT.sol",
  "abi": [
    {
      "constant": true,
      "inputs": [
        {
          "name": "interfaceId",
          "type": "bytes4"
        }
      ],
      "name": "supportsInterface",
      "outputs": [
        {
          "name": "",
          "type": "bool"
        }
      ],
      "payable": false,
      "stateMutability": "view",
      "type": "function"
    },
    {
      "constant": true,
      "inputs": [],
      "name": "name",
      "outputs": [
        {
          "name": "",
          "type": "string"
        }
      ],
      "payable": false,
      "stateMutability": "view",
      "type": "function"
    },
    {
      "constant": true,
      "inputs": [
        {
          "name": "tokenId",
          "type": "uint256"
        }
      ],
      "name": "getApproved",
      "outputs": [
        {
          "name": "",
          "type": "address"
        }
      ],
      "payable": false,
      "stateMutability": "view",
      "type": "function"
    },
    {
      "constant": false,
      "inputs": [
        {
          "name": "to",
          "type": "address"
        },
        {
          "name": "tokenId",
          "type": "uint256"
        }
      ],
      "name": "approve",
      "outputs": [],
      "payable": false,
      "stateMutability": "nonpayable",
      "type": "function"
    },
    {
      "constant": false,
      "inputs": [
        {
          "name": "tos",
          "type": "address[]"
        },
        {
          "name": "ids",
          "type": "uint256[]"
        }
      ],
      "name": "bulkTransfer",
      "outputs": [],
      "payable": false,
      "stateMutability": "nonpayable",
      "type": "function"
    },
    {
      "constant": true,
      "inputs": [],
      "name": "totalSupply",
      "outputs": [
        {
          "name": "",
          "type": "uint256"
        }
      ],
      "payable": false,
      "stateMutability": "view",
      "type": "function"
    },
    {
      "constant": false,
      "inputs": [
        {
          "name": "from",
          "type": "address"
        },
        {
          "name": "to",
          "type": "address"
        },
        {
          "name": "tokenId",
          "type": "uint256"
        }
      ],
      "name": "transferFrom",
      "outputs": [],
      "payable": false,
      "stateMutability": "nonpayable",
      "type": "function"
    },
    {
      "constant": false,
      "inputs": [
        {
          "name": "to",
          "type": "address"
        },
        {
          "name": "fromId",
          "type": "uint256"
        },
        {
          "name": "amount",
          "type": "uint256"
        }
      ],
      "name": "mintBatch",
      "outputs": [],
      "payable": false,
      "stateMutability": "nonpayable",
      "type": "function"
    },
    {
      "constant": true,
      "inputs": [
        {
          "name": "owner",
          "type": "address"
        },
        {
          "name": "index",
          "type": "uint256"
        }
      ],
      "name": "tokenOfOwnerByIndex",
      "outputs": [
        {
          "name": "",
          "type": "uint256"
        }
      ],
      "payable": false,
      "stateMutability": "view",
      "type": "function"
    },
    {
      "constant": false,
      "inputs": [],
      "name": "unpause",
      "outputs": [],
      "payable": false,
      "stateMutability": "nonpayable",
      "type": "function"
    },
    {
      "constant": false,
      "inputs": [
        {
          "name": "to",
          "type": "address"
        },
        {
          "name": "tokenId",
          "type": "uint256"
        }
      ],
      "name": "mint",
      "outputs": [
        {
          "name": "",
          "type": "bool"
        }
      ],
      "payable": false,
      "stateMutability": "nonpayable",
      "type": "function"
    },
    {
      "constant": false,
      "inputs": [
        {
          "name": "from",
          "type": "address"
        },
        {
          "name": "to",
          "type": "address"
        },
        {
          "name": "tokenId",
          "type": "uint256"
        }
      ],
      "name": "safeTransferFrom",
      "outputs": [],
      "payable": false,
      "stateMutability": "nonpayable",
      "type": "function"
    },
    {
      "constant": false,
      "inputs": [
        {
          "name": "tokenId",
          "type": "uint256"
        }
      ],
      "name": "burn",
      "outputs": [],
      "payable": false,
      "stateMutability": "nonpayable",
      "type": "function"
    },
    {
      "constant": true,
      "inputs": [
        {
          "name": "account",
          "type": "address"
        }
      ],
      "name": "isPauser",
      "outputs": [
        {
          "name": "",
          "type": "bool"
        }
      ],
      "payable": false,
      "stateMutability": "view",
      "type": "function"
    },
    {
      "constant": true,
      "inputs": [
        {
          "name": "index",
          "type": "uint256"
        }
      ],
      "name": "tokenByIndex",
      "outputs": [
        {
          "name": "",
          "type": "uint256"
        }
      ],
      "payable": false,
      "stateMutability": "view",
      "type": "function"
    },
    {
      "constant": false,
      "inputs": [
        {
          "name": "_baseURI",
          "type": "string"
        }
      ],
      "name": "setBaseURI",
      "outputs": [],
      "payable": false,
      "stateMutability": "nonpayable",
      "type": "function"
    },
    {
      "constant": true,
      "inputs": [],
      "name": "paused",
      "outputs": [
        {
          "name": "",
          "type": "bool"
        }
      ],
      "payable": false,
      "stateMutability": "view",
      "type": "function"
    },
    {
      "constant": true,
      "inputs": [
        {
          "name": "tokenId",
          "type": "uint256"
        }
      ],
      "name": "ownerOf",
      "outputs": [
        {
          "name": "",
          "type": "address"
        }
      ],
      "payable": false,
      "stateMutability": "view",
      "type": "function"
    },
    {
      "constant": true,
      "inputs": [],
      "name": "baseURI",
      "outputs": [
        {
          "name": "",
          "type": "string"
        }
      ],
      "payable": false,
      "stateMutability": "view",
      "type": "function"
    },
    {
      "constant": false,
      "inputs": [],
      "name": "renouncePauser",
      "outputs": [],
      "payable": false,
      "stateMutability": "nonpayable",
      "type": "function"
    },
    {
      "constant": true,
      "inputs": [
        {
          "name": "owner",
          "type": "address"
        }
      ],
      "name": "balanceOf",
      "outputs": [
        {
          "name": "",
          "type": "uint256"
        }
      ],
      "payable": false,
      "stateMutability": "view",
      "type": "function"
    },
    {
      "constant": false,
      "inputs": [],
      "name": "renounceOwnership",
      "outputs": [],
      "payable": false,
      "stateMutability": "nonpayable",
      "type": "function"
    },
    {
      "constant": false,
      "inputs": [
        {
          "name": "account",
          "type": "address"
        }
      ],
      "name": "addPauser",
      "outputs": [],
      "payable": false,
      "stateMutability": "nonpayable",
      "type": "function"
    },
    {
      "constant": false,
      "inputs": [],
      "name": "pause",
      "outputs": [],
      "payable": false,
      "stateMutability": "nonpayable",
      "type": "function"
    },
    {
      "constant": true,
      "inputs": [],
      "name": "owner",
      "outputs": [
        {
          "name": "",
          "type": "address"
        }
      ],
      "payable": false,
      "stateMutability": "view",
      "type": "function"
    },
    {
      "constant": true,
      "inputs": [],
      "name": "isOwner",
      "outputs": [
        {
          "name": "",
          "type": "bool"
        }
      ],
      "payable": false,
      "stateMutability": "view",
      "type": "function"
    },
    {
      "constant": true,
      "inputs": [],
      "name": "symbol",
      "outputs": [
        {
          "name": "",
          "type": "string"
        }
      ],
      "payable": false,
      "stateMutability": "view",
      "type": "function"
    },
    {
      "constant": false,
      "inputs": [
        {
          "name": "account",
          "type": "address"
        }
      ],
      "name": "addMinter",
      "outputs": [],
      "payable": false,
      "stateMutability": "nonpayable",
      "type": "function"
    },
    {
      "constant": false,
      "inputs": [],
      "name": "renounceMinter",
      "outputs": [],
      "payable": false,
      "stateMutability": "nonpayable",
      "type": "function"
    },
    {
      "constant": false,
      "inputs": [
        {
          "name": "to",
          "type": "address"
        },
        {
          "name": "approved",
          "type": "bool"
        }
      ],
      "name": "setApprovalForAll",
      "outputs": [],
      "payable": false,
      "stateMutability": "nonpayable",
      "type": "function"
    },
    {
      "constant": true,
      "inputs": [
        {
          "name": "account",
          "type": "address"
        }
      ],
      "name": "isMinter",
      "outputs": [
        {
          "name": "",
          "type": "bool"
        }
      ],
      "payable": false,
      "stateMutability": "view",
      "type": "function"
    },
    {
      "constant": false,
      "inputs": [
        {
          "name": "_symbol",
          "type": "string"
        }
      ],
      "name": "setSymbol",
      "outputs": [],
      "payable": false,
      "stateMutability": "nonpayable",
      "type": "function"
    },
    {
      "constant": false,
      "inputs": [
        {
          "name": "from",
          "type": "address"
        },
        {
          "name": "to",
          "type": "address"
        },
        {
          "name": "tokenId",
          "type": "uint256"
        },
        {
          "name": "_data",
          "type": "bytes"
        }
      ],
      "name": "safeTransferFrom",
      "outputs": [],
      "payable": false,
      "stateMutability": "nonpayable",
      "type": "function"
    },
    {
      "constant": false,
      "inputs": [
        {
          "name": "_name",
          "type": "string"
        }
      ],
      "name": "setName",
      "outputs": [],
      "payable": false,
      "stateMutability": "nonpayable",
      "type": "function"
    },
    {
      "constant": true,
      "inputs": [
        {
          "name": "tokenId",
          "type": "uint256"
        }
      ],
      "name": "tokenURI",
      "outputs": [
        {
          "name": "",
          "type": "string"
        }
      ],
      "payable": false,
      "stateMutability": "view",
      "type": "function"
    },
    {
      "constant": true,
      "inputs": [
        {
          "name": "owner",
          "type": "address"
        },
        {
          "name": "operator",
          "type": "address"
        }
      ],
      "name": "isApprovedForAll",
      "outputs": [
        {
          "name": "",
          "type": "bool"
        }
      ],
      "payable": false,
      "stateMutability": "view",
      "type": "function"
    },
    {
      "constant": false,
      "inputs": [
        {
          "name": "newOwner",
          "type": "address"
        }
      ],
      "name": "transferOwnership",
      "outputs": [],
      "payable": false,
      "stateMutability": "nonpayable",
      "type": "function"
    },
    {
      "inputs": [
        {
          "name": "_name",
          "type": "string"
        },
        {
          "name": "_symbol",
          "type": "string"
        },
        {
          "name": "_baseURI",
          "type": "string"
        }
      ],
      "payable": false,
      "stateMutability": "nonpayable",
      "type": "constructor"
    },
    {
      "anonymous": false,
      "inputs": [
        {
          "indexed": false,
          "name": "name",
          "type": "string"
        }
      ],
      "name": "SetName",
      "type": "event"
    },
    {
      "anonymous": false,
      "inputs": [
        {
          "indexed": false,
          "name": "symbol",
          "type": "string"
        }
      ],
      "name": "SetSymbol",
      "type": "event"
    },
    {
      "anonymous": false,
      "inputs": [
        {
          "indexed": false,
          "name": "baseURI",
          "type": "string"
        }
      ],
      "name": "SetBaseURI",
      "type": "event"
    },
    {
      "anonymous": false,
      "inputs": [
        {
          "indexed": false,
          "name": "account",
          "type": "address"
        }
      ],
      "name": "Paused",
      "type": "event"
    },
    {
      "anonymous": false,
      "inputs": [
        {
          "indexed": false,
          "name": "account",
          "type": "address"
        }
      ],
      "name": "Unpaused",
      "type": "event"
    },
    {
      "anonymous": false,
      "inputs": [
        {
          "indexed": true,
          "name": "account",
          "type": "address"
        }
      ],
      "name": "PauserAdded",
      "type": "event"
    },
    {
      "anonymous": false,
      "inputs": [
        {
          "indexed": true,
          "name": "account",
          "type": "address"
        }
      ],
      "name": "PauserRemoved",
      "type": "event"
    },
    {
      "anonymous": false,
      "inputs": [
        {
          "indexed": true,
          "name": "account",
          "type": "address"
        }
      ],
      "name": "MinterAdded",
      "type": "event"
    },
    {
      "anonymous": false,
      "inputs": [
        {
          "indexed": true,
          "name": "account",
          "type": "address"
        }
      ],
      "name": "MinterRemoved",
      "type": "event"
    },
    {
      "anonymous": false,
      "inputs": [
        {
          "indexed": true,
          "name": "from",
          "type": "address"
        },
        {
          "indexed": true,
          "name": "to",
          "type": "address"
        },
        {
          "indexed": true,
          "name": "tokenId",
          "type": "uint256"
        }
      ],
      "name": "Transfer",
      "type": "event"
    },
    {
      "anonymous": false,
      "inputs": [
        {
          "indexed": true,
          "name": "owner",
          "type": "address"
        },
        {
          "indexed": true,
          "name": "approved",
          "type": "address"
        },
        {
          "indexed": true,
          "name": "tokenId",
          "type": "uint256"
        }
      ],
      "name": "Approval",
      "type": "event"
    },
    {
      "anonymous": false,
      "inputs": [
        {
          "indexed": true,
          "name": "owner",
          "type": "address"
        },
        {
          "indexed": true,
          "name": "operator",
          "type": "address"
        },
        {
          "indexed": false,
          "name": "approved",
          "type": "bool"
        }
      ],
      "name": "ApprovalForAll",
      "type": "event"
    },
    {
      "anonymous": false,
      "inputs": [
        {
          "indexed": true,
          "name": "previousOwner",
          "type": "address"
        },
        {
          "indexed": true,
          "name": "newOwner",
          "type": "address"
        }
      ],
      "name": "OwnershipTransferred",
      "type": "event"
    }
  ],
  "bytecode": "0x60806040523480156200001157600080fd5b506040516200351438038062003514833981018060405260608110156200003757600080fd5b8101908080516401000000008111156200005057600080fd5b820160208101848111156200006457600080fd5b81516401000000008111828201871017156200007f57600080fd5b505092919060200180516401000000008111156200009c57600080fd5b82016020810184811115620000b057600080fd5b8151640100000000811182820187101715620000cb57600080fd5b50509291906020018051640100000000811115620000e857600080fd5b82016020810184811115620000fc57600080fd5b81516401000000008111828201871017156200011757600080fd5b5050604080516020808201835260008083528351918201845280825280546001600160a01b031916331780825593519497509195509350849284926001600160a01b031691907f8be0079c531659141344cd1fd0a4f28419497f9722a3daafe3b4186f6b6457e0908290a36200019a6301ffc9a760e01b620002eb60201b60201c565b620001b26380ac58cd60e01b620002eb60201b60201c565b620001ca63780e9d6360e01b620002eb60201b60201c565b8151620001df90600a90602085019062000588565b508051620001f590600b90602084019062000588565b506200020e635b5e139f60e01b620002eb60201b60201c565b505050506200022333620003bd60201b60201c565b6200023b63eab83e2060e01b620002eb60201b60201c565b620002536342966c6860e01b620002eb60201b60201c565b62000264336200040f60201b60201c565b600f805460ff19169055620002a07f4d5507ff00000000000000000000000000000000000000000000000000000000620002eb602090811b901c565b8251620002b590601090602086019062000588565b508151620002cb90601190602085019062000588565b508051620002e190601290602084019062000588565b505050506200062d565b7fffffffff0000000000000000000000000000000000000000000000000000000080821614156200037d57604080517f08c379a000000000000000000000000000000000000000000000000000000000815260206004820152601b60248201527f4b495031333a20696e76616c696420696e746572666163652069640000000000604482015290519081900360640190fd5b7fffffffff00000000000000000000000000000000000000000000000000000000166000908152600160208190526040909120805460ff19169091179055565b620003d881600d6200046160201b6200249c1790919060201c565b6040516001600160a01b038216907f6ae172837ea30b801fbfcdd4108aa1d5bf8ff775444fd70256b44e6bf3dfc3f690600090a250565b6200042a81600e6200046160201b6200249c1790919060201c565b6040516001600160a01b038216907f6719d08c1888103bea251a4ed56406bd0c3e69723c8a1686e017e7bbe159b6f890600090a250565b6200047382826200050560201b60201c565b15620004e057604080517f08c379a000000000000000000000000000000000000000000000000000000000815260206004820152601f60248201527f526f6c65733a206163636f756e7420616c72656164792068617320726f6c6500604482015290519081900360640190fd5b6001600160a01b0316600090815260209190915260409020805460ff19166001179055565b60006001600160a01b03821662000568576040517f08c379a0000000000000000000000000000000000000000000000000000000008152600401808060200182810382526022815260200180620034f26022913960400191505060405180910390fd5b506001600160a01b03166000908152602091909152604090205460ff1690565b828054600181600116156101000203166002900490600052602060002090601f016020900481019282601f10620005cb57805160ff1916838001178555620005fb565b82800160010185558215620005fb579182015b82811115620005fb578251825591602001919060010190620005de565b50620006099291506200060d565b5090565b6200062a91905b8082111562000609576000815560010162000614565b90565b612eb5806200063d6000396000f3fe608060405234801561001057600080fd5b50600436106102275760003560e01c80636c0360eb11610130578063983b2d56116100b8578063b88d4fde1161007c578063b88d4fde14610788578063c47f00271461084c578063c87b56dd146108ba578063e985e9c5146108d7578063f2fde38b1461090557610227565b8063983b2d561461069857806398650275146106be578063a22cb465146106c6578063aa271e1a146106f4578063b84c82461461071a57610227565b806382dc1ec4116100ff57806382dc1ec4146106525780638456cb59146106785780638da5cb5b146106805780638f32d59b1461068857806395d89b411461069057610227565b80636c0360eb146106145780636ef8d66d1461061c57806370a0823114610624578063715018a61461064a57610227565b80633f4ba83a116101b357806346fbf68e1161018257806346fbf68e1461053e5780634f6ccce71461056457806355f804b3146105815780635c975abb146105ef5780636352211e146105f757610227565b80633f4ba83a146104b757806340c10f19146104bf57806342842e0e146104eb57806342966c681461052157610227565b8063153a1f3e116101fa578063153a1f3e1461034b57806318160ddd1461040957806323b872dd146104235780632e81aaea146104595780632f745c591461048b57610227565b806301ffc9a71461022c57806306fdde0314610267578063081812fc146102e4578063095ea7b31461031d575b600080fd5b6102536004803603602081101561024257600080fd5b50356001600160e01b03191661092b565b604080519115158252519081900360200190f35b61026f61094e565b6040805160208082528351818301528351919283929083019185019080838360005b838110156102a9578181015183820152602001610291565b50505050905090810190601f1680156102d65780820380516001836020036101000a031916815260200191505b509250505060405180910390f35b610301600480360360208110156102fa57600080fd5b50356109dc565b604080516001600160a01b039092168252519081900360200190f35b6103496004803603604081101561033357600080fd5b506001600160a01b038135169060200135610a41565b005b6103496004803603604081101561036157600080fd5b810190602081018135600160201b81111561037b57600080fd5b82018360208201111561038d57600080fd5b803590602001918460208302840111600160201b831117156103ae57600080fd5b919390929091602081019035600160201b8111156103cb57600080fd5b8201836020820111156103dd57600080fd5b803590602001918460208302840111600160201b831117156103fe57600080fd5b509092509050610aa0565b610411610b45565b60408051918252519081900360200190f35b6103496004803603606081101561043957600080fd5b506001600160a01b03813581169160208101359091169060400135610b4c565b6103496004803603606081101561046f57600080fd5b506001600160a01b038135169060208101359060400135610bad565b610411600480360360408110156104a157600080fd5b506001600160a01b038135169060200135610c6a565b610349610cec565b610253600480360360408110156104d557600080fd5b506001600160a01b038135169060200135610dcc565b6103496004803603606081101561050157600080fd5b506001600160a01b03813581169160208101359091169060400135610e28565b6103496004803603602081101561053757600080fd5b5035610e43565b6102536004803603602081101561055457600080fd5b50356001600160a01b0316610e97565b6104116004803603602081101561057a57600080fd5b5035610eb0565b6103496004803603602081101561059757600080fd5b810190602081018135600160201b8111156105b157600080fd5b8201836020820111156105c357600080fd5b803590602001918460018302840111600160201b831117156105e457600080fd5b509092509050610f19565b610253610fd4565b6103016004803603602081101561060d57600080fd5b5035610fdd565b61026f611034565b61034961108f565b6104116004803603602081101561063a57600080fd5b50356001600160a01b031661109a565b610349611105565b6103496004803603602081101561066857600080fd5b50356001600160a01b0316611199565b6103496111e9565b6103016112c3565b6102536112d2565b61026f6112e3565b610349600480360360208110156106ae57600080fd5b50356001600160a01b031661133e565b61034961138e565b610349600480360360408110156106dc57600080fd5b506001600160a01b0381351690602001351515611397565b6102536004803603602081101561070a57600080fd5b50356001600160a01b03166113f2565b6103496004803603602081101561073057600080fd5b810190602081018135600160201b81111561074a57600080fd5b82018360208201111561075c57600080fd5b803590602001918460018302840111600160201b8311171561077d57600080fd5b509092509050611405565b6103496004803603608081101561079e57600080fd5b6001600160a01b03823581169260208101359091169160408201359190810190608081016060820135600160201b8111156107d857600080fd5b8201836020820111156107ea57600080fd5b803590602001918460018302840111600160201b8311171561080b57600080fd5b91908080601f0160208091040260200160405190810160405280939291908181526020018383808284376000920191909152509295506114c0945050505050565b6103496004803603602081101561086257600080fd5b810190602081018135600160201b81111561087c57600080fd5b82018360208201111561088e57600080fd5b803590602001918460018302840111600160201b831117156108af57600080fd5b509092509050611515565b61026f600480360360208110156108d057600080fd5b50356115d0565b610253600480360360408110156108ed57600080fd5b506001600160a01b038135811691602001351661183b565b6103496004803603602081101561091b57600080fd5b50356001600160a01b0316611869565b6001600160e01b0319811660009081526001602052604090205460ff165b919050565b6010805460408051602060026001851615610100026000190190941693909304601f810184900484028201840190925281815292918301828280156109d45780601f106109a9576101008083540402835291602001916109d4565b820191906000526020600020905b8154815290600101906020018083116109b757829003601f168201915b505050505081565b60006109e7826118bc565b610a2557604051600160e51b62461bcd02815260040180806020018281038252602b815260200180612dfd602b913960400191505060405180910390fd5b506000908152600360205260409020546001600160a01b031690565b600f5460ff1615610a925760408051600160e51b62461bcd0281526020600482015260106024820152600160821b6f14185d5cd8589b194e881c185d5cd95902604482015290519081900360640190fd5b610a9c82826118d9565b5050565b600f5460ff1615610af15760408051600160e51b62461bcd0281526020600482015260106024820152600160821b6f14185d5cd8589b194e881c185d5cd95902604482015290519081900360640190fd5b8060005b81811015610b3d57610b3533878784818110610b0d57fe5b905060200201356001600160a01b0316868685818110610b2957fe5b90506020020135610b4c565b600101610af5565b505050505050565b6008545b90565b600f5460ff1615610b9d5760408051600160e51b62461bcd0281526020600482015260106024820152600160821b6f14185d5cd8589b194e881c185d5cd95902604482015290519081900360640190fd5b610ba8838383611a06565b505050565b610bb6336113f2565b610bf457604051600160e51b62461bcd028152600401808060200182810382526030815260200180612c136030913960400191505060405180910390fd5b600f5460ff1615610c455760408051600160e51b62461bcd0281526020600482015260106024820152600160821b6f14185d5cd8589b194e881c185d5cd95902604482015290519081900360640190fd5b60005b81811015610c6457610c5c84828501611a59565b600101610c48565b50505050565b6000610c758361109a565b8210610cb557604051600160e51b62461bcd02815260040180806020018281038252602a815260200180612be9602a913960400191505060405180910390fd5b6001600160a01b0383166000908152600660205260409020805483908110610cd957fe5b9060005260206000200154905092915050565b610cf533610e97565b610d3357604051600160e51b62461bcd028152600401808060200182810382526030815260200180612b706030913960400191505060405180910390fd5b600f5460ff16610d8d5760408051600160e51b62461bcd02815260206004820152601460248201527f5061757361626c653a206e6f7420706175736564000000000000000000000000604482015290519081900360640190fd5b600f805460ff191690556040805133815290517f5db9ee0a495bf2e6ff9c91a7834c1ba4fdd244a5e8aa4e537bd38aeae4b073aa9181900360200190a1565b6000610dd7336113f2565b610e1557604051600160e51b62461bcd028152600401808060200182810382526030815260200180612c136030913960400191505060405180910390fd5b610e1f8383611a59565b50600192915050565b610ba8838383604051806020016040528060008152506114c0565b610e4d3382611a76565b610e8b57604051600160e51b62461bcd02815260040180806020018281038252602f815260200180612d2e602f913960400191505060405180910390fd5b610e9481611b1d565b50565b6000610eaa600e8363ffffffff611b2f16565b92915050565b6000610eba610b45565b8210610efa57604051600160e51b62461bcd02815260040180806020018281038252602b815260200180612dae602b913960400191505060405180910390fd5b60088281548110610f0757fe5b90600052602060002001549050919050565b610f216112d2565b610f635760408051600160e51b62461bcd0281526020600482018190526024820152600080516020612cbc833981519152604482015290519081900360640190fd5b610f6f60128383612a45565b507f23c8c9488efebfd474e85a7956de6f39b17c7ab88502d42a623db2d8e382bbaa828260405180806020018281038252848482818152602001925080828437600083820152604051601f909101601f19169092018290039550909350505050a15050565b600f5460ff1690565b6000818152600260205260408120546001600160a01b031680610eaa57604051600160e51b62461bcd028152600401808060200182810382526028815260200180612c646028913960400191505060405180910390fd5b6012805460408051602060026001851615610100026000190190941693909304601f810184900484028201840190925281815292918301828280156109d45780601f106109a9576101008083540402835291602001916109d4565b61109833611b99565b565b60006001600160a01b0382166110e457604051600160e51b62461bcd028152600401808060200182810382526029815260200180612d5d6029913960400191505060405180910390fd5b6001600160a01b0382166000908152600460205260409020610eaa90611be1565b61110d6112d2565b61114f5760408051600160e51b62461bcd0281526020600482018190526024820152600080516020612cbc833981519152604482015290519081900360640190fd5b600080546040516001600160a01b03909116907f8be0079c531659141344cd1fd0a4f28419497f9722a3daafe3b4186f6b6457e0908390a3600080546001600160a01b0319169055565b6111a233610e97565b6111e057604051600160e51b62461bcd028152600401808060200182810382526030815260200180612b706030913960400191505060405180910390fd5b610e9481611be5565b6111f233610e97565b61123057604051600160e51b62461bcd028152600401808060200182810382526030815260200180612b706030913960400191505060405180910390fd5b600f5460ff16156112815760408051600160e51b62461bcd0281526020600482015260106024820152600160821b6f14185d5cd8589b194e881c185d5cd95902604482015290519081900360640190fd5b600f805460ff191660011790556040805133815290517f62e78cea01bee320cd4e420270b5ea74000d11b0c9f74754ebdbfc544b05a2589181900360200190a1565b6000546001600160a01b031690565b6000546001600160a01b0316331490565b6011805460408051602060026001851615610100026000190190941693909304601f810184900484028201840190925281815292918301828280156109d45780601f106109a9576101008083540402835291602001916109d4565b611347336113f2565b61138557604051600160e51b62461bcd028152600401808060200182810382526030815260200180612c136030913960400191505060405180910390fd5b610e9481611c2d565b61109833611c75565b600f5460ff16156113e85760408051600160e51b62461bcd0281526020600482015260106024820152600160821b6f14185d5cd8589b194e881c185d5cd95902604482015290519081900360640190fd5b610a9c8282611cbd565b6000610eaa600d8363ffffffff611b2f16565b61140d6112d2565b61144f5760408051600160e51b62461bcd0281526020600482018190526024820152600080516020612cbc833981519152604482015290519081900360640190fd5b61145b60118383612a45565b507fadf3ae8bd543b3007d464f15cb8ea1db3f44e84d41d203164f40b95e27558ac6828260405180806020018281038252848482818152602001925080828437600083820152604051601f909101601f19169092018290039550909350505050a15050565b6114cb848484610b4c565b6114d784848484611d8c565b610c6457604051600160e51b62461bcd028152600401808060200182810382526030815260200180612cfe6030913960400191505060405180910390fd5b61151d6112d2565b61155f5760408051600160e51b62461bcd0281526020600482018190526024820152600080516020612cbc833981519152604482015290519081900360640190fd5b61156b60108383612a45565b507f4df9dcd34ae35f40f2c756fd8ac83210ed0b76d065543ee73d868aec7c7fcf02828260405180806020018281038252848482818152602001925080828437600083820152604051601f909101601f19169092018290039550909350505050a15050565b60606115db826118bc565b61161957604051600160e51b62461bcd02815260040180806020018281038252602e815260200180612b42602e913960400191505060405180910390fd5b816116a8576012604051602001808280546001816001161561010002031660029004801561167e5780601f1061165c57610100808354040283529182019161167e565b820191906000526020600020905b81548152906001019060200180831161166a575b505080600160fc1b6003028152506001019150506040516020818303038152906040529050610949565b60608260005b81156116c257600101600a820491506116ae565b6060816040519080825280601f01601f1916602001820160405280156116ef576020820181803883390190505b5090505b85156117385760001990910190600a860660300160f81b81838151811061171657fe5b60200101906001600160f81b031916908160001a905350600a860495506116f3565b809350600060128054600181600116156101000203166002900490501161176e5760405180602001604052806000815250611831565b60128460405160200180838054600181600116156101000203166002900480156117cf5780601f106117ad5761010080835404028352918201916117cf565b820191906000526020600020905b8154815290600101906020018083116117bb575b5050825160208401908083835b602083106117fb5780518252601f1990920191602091820191016117dc565b6001836020036101000a038019825116818451168082178552505050505050905001925050506040516020818303038152906040525b9695505050505050565b6001600160a01b03918216600090815260056020908152604080832093909416825291909152205460ff1690565b6118716112d2565b6118b35760408051600160e51b62461bcd0281526020600482018190526024820152600080516020612cbc833981519152604482015290519081900360640190fd5b610e948161216f565b6000908152600260205260409020546001600160a01b0316151590565b60006118e482610fdd565b9050806001600160a01b0316836001600160a01b031614156119505760408051600160e51b62461bcd02815260206004820181905260248201527f4b495031373a20617070726f76616c20746f2063757272656e74206f776e6572604482015290519081900360640190fd5b336001600160a01b038216148061196c575061196c813361183b565b6119aa57604051600160e51b62461bcd028152600401808060200182810382526037815260200180612e286037913960400191505060405180910390fd5b60008281526003602052604080822080546001600160a01b0319166001600160a01b0387811691821790925591518593918516917f8c5be1e5ebec7d5bd14f71427d1e84f3dd0314c0f7b2291e5b200ac8c7c3b92591a4505050565b611a103382611a76565b611a4e57604051600160e51b62461bcd028152600401808060200182810382526030815260200180612c8c6030913960400191505060405180910390fd5b610ba8838383612212565b611a638282612231565b611a6d8282612368565b610a9c816123a6565b6000611a81826118bc565b611abf57604051600160e51b62461bcd02815260040180806020018281038252602b815260200180612e5f602b913960400191505060405180910390fd5b6000611aca83610fdd565b9050806001600160a01b0316846001600160a01b03161480611b055750836001600160a01b0316611afa846109dc565b6001600160a01b0316145b80611b155750611b15818561183b565b949350505050565b610e94611b2982610fdd565b826123ea565b60006001600160a01b038216611b7957604051600160e51b62461bcd028152600401808060200182810382526022815260200180612cdc6022913960400191505060405180910390fd5b506001600160a01b03166000908152602091909152604090205460ff1690565b611baa600e8263ffffffff61243216565b6040516001600160a01b038216907fcd265ebaf09df2871cc7bd4133404a235ba12eff2041bb89d9c714a2621c7c7e90600090a250565b5490565b611bf6600e8263ffffffff61249c16565b6040516001600160a01b038216907f6719d08c1888103bea251a4ed56406bd0c3e69723c8a1686e017e7bbe159b6f890600090a250565b611c3e600d8263ffffffff61249c16565b6040516001600160a01b038216907f6ae172837ea30b801fbfcdd4108aa1d5bf8ff775444fd70256b44e6bf3dfc3f690600090a250565b611c86600d8263ffffffff61243216565b6040516001600160a01b038216907fe94479a9f7e1952cc78f2d6baab678adc1b772d936c6583def489e524cb6669290600090a250565b6001600160a01b038216331415611d1e5760408051600160e51b62461bcd02815260206004820152601860248201527f4b495031373a20617070726f766520746f2063616c6c65720000000000000000604482015290519081900360640190fd5b3360008181526005602090815260408083206001600160a01b03871680855290835292819020805460ff1916861515908117909155815190815290519293927f17307eab39ab6107e8899845ad3d59bd9653f200f220920489ca2b5937696c31929181900390910190a35050565b6000806060611da3866001600160a01b0316612520565b611db257600192505050611b15565b856001600160a01b031663150b7a0260e01b3389888860405160240180856001600160a01b03166001600160a01b03168152602001846001600160a01b03166001600160a01b0316815260200183815260200180602001828103825283818151815260200191508051906020019080838360005b83811015611e3e578181015183820152602001611e26565b50505050905090810190601f168015611e6b5780820380516001836020036101000a031916815260200191505b5060408051601f198184030181529181526020820180516001600160e01b03166001600160e01b0319909a16999099178952518151919890975087965094509250829150849050835b60208310611ed35780518252601f199092019160209182019101611eb4565b6001836020036101000a0380198251168184511680821785525050505050509050019150506000604051808303816000865af19150503d8060008114611f35576040519150601f19603f3d011682016040523d82523d6000602084013e611f3a565b606091505b508051919350915015801590611f7a57508051600160e11b630a85bd01029060208084019190811015611f6c57600080fd5b50516001600160e01b031916145b15611f8a57600192505050611b15565b856001600160a01b0316636745782b60e01b3389888860405160240180856001600160a01b03166001600160a01b03168152602001846001600160a01b03166001600160a01b0316815260200183815260200180602001828103825283818151815260200191508051906020019080838360005b83811015612016578181015183820152602001611ffe565b50505050905090810190601f1680156120435780820380516001836020036101000a031916815260200191505b5060408051601f198184030181529181526020820180516001600160e01b03166001600160e01b0319909a16999099178952518151919890975087965094509250829150849050835b602083106120ab5780518252601f19909201916020918201910161208c565b6001836020036101000a0380198251168184511680821785525050505050509050019150506000604051808303816000865af19150503d806000811461210d576040519150601f19603f3d011682016040523d82523d6000602084013e612112565b606091505b50805191935091501580159061215257508051600160e01b636745782b02906020808401919081101561214457600080fd5b50516001600160e01b031916145b1561216257600192505050611b15565b5060009695505050505050565b6001600160a01b0381166121b757604051600160e51b62461bcd028152600401808060200182810382526026815260200180612ba06026913960400191505060405180910390fd5b600080546040516001600160a01b03808516939216917f8be0079c531659141344cd1fd0a4f28419497f9722a3daafe3b4186f6b6457e091a3600080546001600160a01b0319166001600160a01b0392909216919091179055565b61221d838383612526565b6122278382612670565b610ba88282612368565b6001600160a01b03821661228f5760408051600160e51b62461bcd02815260206004820152601f60248201527f4b495031373a206d696e7420746f20746865207a65726f206164647265737300604482015290519081900360640190fd5b612298816118bc565b156122ed5760408051600160e51b62461bcd02815260206004820152601b60248201527f4b495031373a20746f6b656e20616c7265616479206d696e7465640000000000604482015290519081900360640190fd5b600081815260026020908152604080832080546001600160a01b0319166001600160a01b03871690811790915583526004909152902061232c90612765565b60405181906001600160a01b038416906000907fddf252ad1be2c89b69c2b068fc378daa952ba7f163c4a11628f55a4df523b3ef908290a45050565b6001600160a01b0390911660009081526006602081815260408084208054868652600784529185208290559282526001810183559183529091200155565b600880546000838152600960205260408120829055600182018355919091527ff3f7a9fe364faab93b216da50a3214154f22a0a2b415b23a84c8169e8b636ee30155565b6123f4828261276e565b6000818152600c60205260409020546002600019610100600184161502019091160415610a9c576000818152600c60205260408120610a9c91612ac3565b61243c8282611b2f565b61247a57604051600160e51b62461bcd028152600401808060200182810382526021815260200180612c436021913960400191505060405180910390fd5b6001600160a01b0316600090815260209190915260409020805460ff19169055565b6124a68282611b2f565b156124fb5760408051600160e51b62461bcd02815260206004820152601f60248201527f526f6c65733a206163636f756e7420616c72656164792068617320726f6c6500604482015290519081900360640190fd5b6001600160a01b0316600090815260209190915260409020805460ff19166001179055565b3b151590565b826001600160a01b031661253982610fdd565b6001600160a01b03161461258157604051600160e51b62461bcd028152600401808060200182810382526028815260200180612d866028913960400191505060405180910390fd5b6001600160a01b0382166125c957604051600160e51b62461bcd028152600401808060200182810382526023815260200180612bc66023913960400191505060405180910390fd5b6125d28161279a565b6001600160a01b03831660009081526004602052604090206125f3906127d5565b6001600160a01b038216600090815260046020526040902061261490612765565b60008181526002602052604080822080546001600160a01b0319166001600160a01b0386811691821790925591518493918716917fddf252ad1be2c89b69c2b068fc378daa952ba7f163c4a11628f55a4df523b3ef91a4505050565b6001600160a01b03821660009081526006602052604081205461269a90600163ffffffff6127ec16565b600083815260076020526040902054909150808214612735576001600160a01b03841660009081526006602052604081208054849081106126d757fe5b906000526020600020015490508060066000876001600160a01b03166001600160a01b03168152602001908152602001600020838154811061271557fe5b600091825260208083209091019290925591825260079052604090208190555b6001600160a01b038416600090815260066020526040902080549061275e906000198301612b07565b5050505050565b80546001019055565b6127788282612835565b6127828282612670565b600081815260076020526040812055610a9c8161290f565b6000818152600360205260409020546001600160a01b031615610e9457600090815260036020526040902080546001600160a01b0319169055565b80546127e890600163ffffffff6127ec16565b9055565b600061282e83836040518060400160405280601e81526020017f536166654d6174683a207375627472616374696f6e206f766572666c6f7700008152506129ab565b9392505050565b816001600160a01b031661284882610fdd565b6001600160a01b03161461289057604051600160e51b62461bcd028152600401808060200182810382526024815260200180612dd96024913960400191505060405180910390fd5b6128998161279a565b6001600160a01b03821660009081526004602052604090206128ba906127d5565b60008181526002602052604080822080546001600160a01b0319169055518291906001600160a01b038516907fddf252ad1be2c89b69c2b068fc378daa952ba7f163c4a11628f55a4df523b3ef908390a45050565b60085460009061292690600163ffffffff6127ec16565b6000838152600960205260408120546008805493945090928490811061294857fe5b90600052602060002001549050806008838154811061296357fe5b60009182526020808320909101929092558281526009909152604090208290556008805490612996906000198301612b07565b50505060009182525060096020526040812055565b60008184841115612a3d57604051600160e51b62461bcd0281526004018080602001828103825283818151815260200191508051906020019080838360005b83811015612a025781810151838201526020016129ea565b50505050905090810190601f168015612a2f5780820380516001836020036101000a031916815260200191505b509250505060405180910390fd5b505050900390565b828054600181600116156101000203166002900490600052602060002090601f016020900481019282601f10612a865782800160ff19823516178555612ab3565b82800160010185558215612ab3579182015b82811115612ab3578235825591602001919060010190612a98565b50612abf929150612b27565b5090565b50805460018160011615610100020316600290046000825580601f10612ae95750610e94565b601f016020900490600052602060002090810190610e949190612b27565b815481835581811115610ba857600083815260209020610ba89181019083015b610b4991905b80821115612abf5760008155600101612b2d56fe4b495031374d657461646174613a2055524920717565727920666f72206e6f6e6578697374656e7420746f6b656e506175736572526f6c653a2063616c6c657220646f6573206e6f742068617665207468652050617573657220726f6c654f776e61626c653a206e6577206f776e657220697320746865207a65726f20616464726573734b495031373a207472616e7366657220746f20746865207a65726f20616464726573734b49503137456e756d657261626c653a206f776e657220696e646578206f7574206f6620626f756e64734d696e746572526f6c653a2063616c6c657220646f6573206e6f74206861766520746865204d696e74657220726f6c65526f6c65733a206163636f756e7420646f6573206e6f74206861766520726f6c654b495031373a206f776e657220717565727920666f72206e6f6e6578697374656e7420746f6b656e4b495031373a207472616e736665722063616c6c6572206973206e6f74206f776e6572206e6f7220617070726f7665644f776e61626c653a2063616c6c6572206973206e6f7420746865206f776e6572526f6c65733a206163636f756e7420697320746865207a65726f20616464726573734b495031373a207472616e7366657220746f206e6f6e204b49503137526563656976657220696d706c656d656e7465724b495031374275726e61626c653a2063616c6c6572206973206e6f74206f776e6572206e6f7220617070726f7665644b495031373a2062616c616e636520717565727920666f7220746865207a65726f20616464726573734b495031373a207472616e73666572206f6620746f6b656e2074686174206973206e6f74206f776e4b49503137456e756d657261626c653a20676c6f62616c20696e646578206f7574206f6620626f756e64734b495031373a206275726e206f6620746f6b656e2074686174206973206e6f74206f776e4b495031373a20617070726f76656420717565727920666f72206e6f6e6578697374656e7420746f6b656e4b495031373a20617070726f76652063616c6c6572206973206e6f74206f776e6572206e6f7220617070726f76656420666f7220616c6c4b495031373a206f70657261746f7220717565727920666f72206e6f6e6578697374656e7420746f6b656ea165627a7a72305820cb0a902fd914eae9d2ca72ba0296f5bd313a24268d6c1431f38fe61c2dcff7cb0029526f6c65733a206163636f756e7420697320746865207a65726f2061646472657373",
  "linkReferences": {},
  "deployedLinkReferences": {}
}