{
    "_format": "hh-sol-artifact-1",
    "contractName": "KlubsContentsNFTMinter",
    "sourceName": "contracts/KlubsContentsNFTMinter.sol",
    "abi": [
        {
            "constant": true,
            "inputs": [],
            "name": "feeTo",
            "outputs": [
                {
                    "name": "",
                    "type": "address"
                }
            ],
            "payable": false,
            "stateMutability": "view",
            "type": "function"
        },
        {
            "constant": false,
            "inputs": [
                {
                    "name": "_amount",
                    "type": "uint256"
                }
            ],
            "name": "setAmount",
            "outputs": [],
            "payable": false,
            "stateMutability": "nonpayable",
            "type": "function"
        },
        {
            "constant": true,
            "inputs": [],
            "name": "fromId",
            "outputs": [
                {
                    "name": "",
                    "type": "uint256"
                }
            ],
            "payable": false,
            "stateMutability": "view",
            "type": "function"
        },
        {
            "constant": true,
            "inputs": [],
            "name": "nft",
            "outputs": [
                {
                    "name": "",
                    "type": "address"
                }
            ],
            "payable": false,
            "stateMutability": "view",
            "type": "function"
        },
        {
            "constant": false,
            "inputs": [
                {
                    "name": "_fromId",
                    "type": "uint256"
                }
            ],
            "name": "setFromId",
            "outputs": [],
            "payable": false,
            "stateMutability": "nonpayable",
            "type": "function"
        },
        {
            "constant": false,
            "inputs": [
                {
                    "name": "_limitPerTransaction",
                    "type": "uint256"
                }
            ],
            "name": "setLimitPerTransaction",
            "outputs": [],
            "payable": false,
            "stateMutability": "nonpayable",
            "type": "function"
        },
        {
            "constant": false,
            "inputs": [],
            "name": "renounceOwnership",
            "outputs": [],
            "payable": false,
            "stateMutability": "nonpayable",
            "type": "function"
        },
        {
            "constant": true,
            "inputs": [],
            "name": "owner",
            "outputs": [
                {
                    "name": "",
                    "type": "address"
                }
            ],
            "payable": false,
            "stateMutability": "view",
            "type": "function"
        },
        {
            "constant": true,
            "inputs": [],
            "name": "isOwner",
            "outputs": [
                {
                    "name": "",
                    "type": "bool"
                }
            ],
            "payable": false,
            "stateMutability": "view",
            "type": "function"
        },
        {
            "constant": false,
            "inputs": [
                {
                    "name": "_price",
                    "type": "uint256"
                }
            ],
            "name": "setPrice",
            "outputs": [],
            "payable": false,
            "stateMutability": "nonpayable",
            "type": "function"
        },
        {
            "constant": true,
            "inputs": [],
            "name": "price",
            "outputs": [
                {
                    "name": "",
                    "type": "uint256"
                }
            ],
            "payable": false,
            "stateMutability": "view",
            "type": "function"
        },
        {
            "constant": false,
            "inputs": [
                {
                    "name": "count",
                    "type": "uint256"
                }
            ],
            "name": "mint",
            "outputs": [],
            "payable": true,
            "stateMutability": "payable",
            "type": "function"
        },
        {
            "constant": true,
            "inputs": [],
            "name": "amount",
            "outputs": [
                {
                    "name": "",
                    "type": "uint256"
                }
            ],
            "payable": false,
            "stateMutability": "view",
            "type": "function"
        },
        {
            "constant": true,
            "inputs": [],
            "name": "limitPerTransaction",
            "outputs": [
                {
                    "name": "",
                    "type": "uint256"
                }
            ],
            "payable": false,
            "stateMutability": "view",
            "type": "function"
        },
        {
            "constant": false,
            "inputs": [
                {
                    "name": "newOwner",
                    "type": "address"
                }
            ],
            "name": "transferOwnership",
            "outputs": [],
            "payable": false,
            "stateMutability": "nonpayable",
            "type": "function"
        },
        {
            "constant": false,
            "inputs": [
                {
                    "name": "_feeTo",
                    "type": "address"
                }
            ],
            "name": "setFeeTo",
            "outputs": [],
            "payable": false,
            "stateMutability": "nonpayable",
            "type": "function"
        },
        {
            "inputs": [
                {
                    "name": "_nft",
                    "type": "address"
                },
                {
                    "name": "_feeTo",
                    "type": "address"
                },
                {
                    "name": "_price",
                    "type": "uint256"
                },
                {
                    "name": "_limitPerTransaction",
                    "type": "uint256"
                },
                {
                    "name": "_fromId",
                    "type": "uint256"
                }
            ],
            "payable": false,
            "stateMutability": "nonpayable",
            "type": "constructor"
        },
        {
            "anonymous": false,
            "inputs": [
                {
                    "indexed": true,
                    "name": "previousOwner",
                    "type": "address"
                },
                {
                    "indexed": true,
                    "name": "newOwner",
                    "type": "address"
                }
            ],
            "name": "OwnershipTransferred",
            "type": "event"
        }
    ],
    "bytecode": "0x6080604052600060065534801561001557600080fd5b5060405160a080610ad8833981018060405260a081101561003557600080fd5b50805160208201516040808401516060850151608090950151600080546001600160a01b031916331780825593519596949592949391926001600160a01b0392909216917f8be0079c531659141344cd1fd0a4f28419497f9722a3daafe3b4186f6b6457e0908290a3600180546001600160a01b039687166001600160a01b03199182161790915560028054959096169416939093179093556003556004919091556005556109ef806100e96000396000f3fe6080604052600436106100f35760003560e01c80638f32d59b1161008a578063aa8c217c11610059578063aa8c217c14610294578063d8ca0fae146102a9578063f2fde38b146102be578063f46901ed146102f1576100f3565b80638f32d59b1461020f57806391b7f5ed14610238578063a035b1fe14610262578063a0712d6814610277576100f3565b80634a3c4992116100c65780634a3c4992146101915780636b107c53146101bb578063715018a6146101e55780638da5cb5b146101fa576100f3565b8063017e7e58146100f8578063271f88b4146101295780632a9719a41461015557806347ccca021461017c575b600080fd5b34801561010457600080fd5b5061010d610324565b604080516001600160a01b039092168252519081900360200190f35b34801561013557600080fd5b506101536004803603602081101561014c57600080fd5b5035610333565b005b34801561016157600080fd5b5061016a610382565b60408051918252519081900360200190f35b34801561018857600080fd5b5061010d610388565b34801561019d57600080fd5b50610153600480360360208110156101b457600080fd5b5035610397565b3480156101c757600080fd5b50610153600480360360208110156101de57600080fd5b50356103e6565b3480156101f157600080fd5b50610153610435565b34801561020657600080fd5b5061010d6104c9565b34801561021b57600080fd5b506102246104d8565b604080519115158252519081900360200190f35b34801561024457600080fd5b506101536004803603602081101561025b57600080fd5b50356104e9565b34801561026e57600080fd5b5061016a610538565b6101536004803603602081101561028d57600080fd5b503561053e565b3480156102a057600080fd5b5061016a61064d565b3480156102b557600080fd5b5061016a610653565b3480156102ca57600080fd5b50610153600480360360208110156102e157600080fd5b50356001600160a01b0316610659565b3480156102fd57600080fd5b506101536004803603602081101561031457600080fd5b50356001600160a01b03166106af565b6002546001600160a01b031681565b61033b6104d8565b61037d5760408051600160e51b62461bcd02815260206004820181905260248201526000805160206109a4833981519152604482015290519081900360640190fd5b600655565b60055481565b6001546001600160a01b031681565b61039f6104d8565b6103e15760408051600160e51b62461bcd02815260206004820181905260248201526000805160206109a4833981519152604482015290519081900360640190fd5b600555565b6103ee6104d8565b6104305760408051600160e51b62461bcd02815260206004820181905260248201526000805160206109a4833981519152604482015290519081900360640190fd5b600455565b61043d6104d8565b61047f5760408051600160e51b62461bcd02815260206004820181905260248201526000805160206109a4833981519152604482015290519081900360640190fd5b600080546040516001600160a01b03909116907f8be0079c531659141344cd1fd0a4f28419497f9722a3daafe3b4186f6b6457e0908390a3600080546001600160a01b0319169055565b6000546001600160a01b031690565b6000546001600160a01b0316331490565b6104f16104d8565b6105335760408051600160e51b62461bcd02815260206004820181905260248201526000805160206109a4833981519152604482015290519081900360640190fd5b600355565b60035481565b60045481111561054d57600080fd5b600354610560908263ffffffff61071b16565b341461056b57600080fd5b60015460055460408051600160e11b631740d575028152336004820152602481019290925260448201849052516001600160a01b0390921691632e81aaea9160648082019260009290919082900301818387803b1580156105cb57600080fd5b505af11580156105df573d6000803e3d6000fd5b50506005546105f7925090508263ffffffff61078016565b60055560065461060d908263ffffffff6107dd16565b6006556002546040516001600160a01b03909116903480156108fc02916000818181858888f19350505050158015610649573d6000803e3d6000fd5b5050565b60065481565b60045481565b6106616104d8565b6106a35760408051600160e51b62461bcd02815260206004820181905260248201526000805160206109a4833981519152604482015290519081900360640190fd5b6106ac8161081f565b50565b6106b76104d8565b6106f95760408051600160e51b62461bcd02815260206004820181905260248201526000805160206109a4833981519152604482015290519081900360640190fd5b600280546001600160a01b0319166001600160a01b0392909216919091179055565b60008261072a5750600061077a565b8282028284828161073757fe5b041461077757604051600160e51b62461bcd0281526004018080602001828103825260218152602001806109836021913960400191505060405180910390fd5b90505b92915050565b6000828201838110156107775760408051600160e51b62461bcd02815260206004820152601b60248201527f536166654d6174683a206164646974696f6e206f766572666c6f770000000000604482015290519081900360640190fd5b600061077783836040518060400160405280601e81526020017f536166654d6174683a207375627472616374696f6e206f766572666c6f7700008152506108c2565b6001600160a01b03811661086757604051600160e51b62461bcd02815260040180806020018281038252602681526020018061095d6026913960400191505060405180910390fd5b600080546040516001600160a01b03808516939216917f8be0079c531659141344cd1fd0a4f28419497f9722a3daafe3b4186f6b6457e091a3600080546001600160a01b0319166001600160a01b0392909216919091179055565b6000818484111561095457604051600160e51b62461bcd0281526004018080602001828103825283818151815260200191508051906020019080838360005b83811015610919578181015183820152602001610901565b50505050905090810190601f1680156109465780820380516001836020036101000a031916815260200191505b509250505060405180910390fd5b50505090039056fe4f776e61626c653a206e6577206f776e657220697320746865207a65726f2061646472657373536166654d6174683a206d756c7469706c69636174696f6e206f766572666c6f774f776e61626c653a2063616c6c6572206973206e6f7420746865206f776e6572a165627a7a72305820fb940df2b25c4c4a985935f128755ce0ec6454cdd435bd2c414d02479b52c2f60029",
    "linkReferences": {},
    "deployedLinkReferences": {}
}