{
  "_format": "hh-sol-artifact-1",
  "contractName": "ERC721AQueryableStartTokenIdMock",
  "sourceName": "contracts/ERC721A/mocks/ERC721AQueryableStartTokenIdMock.sol",
  "abi": [
    {
      "inputs": [
        {
          "internalType": "string",
          "name": "name_",
          "type": "string"
        },
        {
          "internalType": "string",
          "name": "symbol_",
          "type": "string"
        },
        {
          "internalType": "uint256",
          "name": "startTokenId_",
          "type": "uint256"
        }
      ],
      "stateMutability": "nonpayable",
      "type": "constructor"
    },
    {
      "inputs": [],
      "name": "ApprovalCallerNotOwnerNorApproved",
      "type": "error"
    },
    {
      "inputs": [],
      "name": "ApprovalQueryForNonexistentToken",
      "type": "error"
    },
    {
      "inputs": [],
      "name": "ApproveToCaller",
      "type": "error"
    },
    {
      "inputs": [],
      "name": "BalanceQueryForZeroAddress",
      "type": "error"
    },
    {
      "inputs": [],
      "name": "InvalidQueryRange",
      "type": "error"
    },
    {
      "inputs": [],
      "name": "MintToZeroAddress",
      "type": "error"
    },
    {
      "inputs": [],
      "name": "MintZeroQuantity",
      "type": "error"
    },
    {
      "inputs": [],
      "name": "OwnerQueryForNonexistentToken",
      "type": "error"
    },
    {
      "inputs": [],
      "name": "TransferCallerNotOwnerNorApproved",
      "type": "error"
    },
    {
      "inputs": [],
      "name": "TransferFromIncorrectOwner",
      "type": "error"
    },
    {
      "inputs": [],
      "name": "TransferToNonERC721ReceiverImplementer",
      "type": "error"
    },
    {
      "inputs": [],
      "name": "TransferToZeroAddress",
      "type": "error"
    },
    {
      "inputs": [],
      "name": "URIQueryForNonexistentToken",
      "type": "error"
    },
    {
      "anonymous": false,
      "inputs": [
        {
          "indexed": true,
          "internalType": "address",
          "name": "owner",
          "type": "address"
        },
        {
          "indexed": true,
          "internalType": "address",
          "name": "approved",
          "type": "address"
        },
        {
          "indexed": true,
          "internalType": "uint256",
          "name": "tokenId",
          "type": "uint256"
        }
      ],
      "name": "Approval",
      "type": "event"
    },
    {
      "anonymous": false,
      "inputs": [
        {
          "indexed": true,
          "internalType": "address",
          "name": "owner",
          "type": "address"
        },
        {
          "indexed": true,
          "internalType": "address",
          "name": "operator",
          "type": "address"
        },
        {
          "indexed": false,
          "internalType": "bool",
          "name": "approved",
          "type": "bool"
        }
      ],
      "name": "ApprovalForAll",
      "type": "event"
    },
    {
      "anonymous": false,
      "inputs": [
        {
          "indexed": true,
          "internalType": "address",
          "name": "from",
          "type": "address"
        },
        {
          "indexed": true,
          "internalType": "address",
          "name": "to",
          "type": "address"
        },
        {
          "indexed": true,
          "internalType": "uint256",
          "name": "tokenId",
          "type": "uint256"
        }
      ],
      "name": "Transfer",
      "type": "event"
    },
    {
      "inputs": [
        {
          "internalType": "address",
          "name": "to",
          "type": "address"
        },
        {
          "internalType": "uint256",
          "name": "tokenId",
          "type": "uint256"
        }
      ],
      "name": "approve",
      "outputs": [],
      "stateMutability": "nonpayable",
      "type": "function"
    },
    {
      "inputs": [
        {
          "internalType": "address",
          "name": "owner",
          "type": "address"
        }
      ],
      "name": "balanceOf",
      "outputs": [
        {
          "internalType": "uint256",
          "name": "",
          "type": "uint256"
        }
      ],
      "stateMutability": "view",
      "type": "function"
    },
    {
      "inputs": [
        {
          "internalType": "uint256",
          "name": "tokenId",
          "type": "uint256"
        }
      ],
      "name": "burn",
      "outputs": [],
      "stateMutability": "nonpayable",
      "type": "function"
    },
    {
      "inputs": [
        {
          "internalType": "uint256",
          "name": "tokenId",
          "type": "uint256"
        }
      ],
      "name": "explicitOwnershipOf",
      "outputs": [
        {
          "components": [
            {
              "internalType": "address",
              "name": "addr",
              "type": "address"
            },
            {
              "internalType": "uint64",
              "name": "startTimestamp",
              "type": "uint64"
            },
            {
              "internalType": "bool",
              "name": "burned",
              "type": "bool"
            }
          ],
          "internalType": "struct IERC721A.TokenOwnership",
          "name": "",
          "type": "tuple"
        }
      ],
      "stateMutability": "view",
      "type": "function"
    },
    {
      "inputs": [
        {
          "internalType": "uint256[]",
          "name": "tokenIds",
          "type": "uint256[]"
        }
      ],
      "name": "explicitOwnershipsOf",
      "outputs": [
        {
          "components": [
            {
              "internalType": "address",
              "name": "addr",
              "type": "address"
            },
            {
              "internalType": "uint64",
              "name": "startTimestamp",
              "type": "uint64"
            },
            {
              "internalType": "bool",
              "name": "burned",
              "type": "bool"
            }
          ],
          "internalType": "struct IERC721A.TokenOwnership[]",
          "name": "",
          "type": "tuple[]"
        }
      ],
      "stateMutability": "view",
      "type": "function"
    },
    {
      "inputs": [
        {
          "internalType": "uint256",
          "name": "tokenId",
          "type": "uint256"
        }
      ],
      "name": "getApproved",
      "outputs": [
        {
          "internalType": "address",
          "name": "",
          "type": "address"
        }
      ],
      "stateMutability": "view",
      "type": "function"
    },
    {
      "inputs": [
        {
          "internalType": "address",
          "name": "owner",
          "type": "address"
        },
        {
          "internalType": "address",
          "name": "operator",
          "type": "address"
        }
      ],
      "name": "isApprovedForAll",
      "outputs": [
        {
          "internalType": "bool",
          "name": "",
          "type": "bool"
        }
      ],
      "stateMutability": "view",
      "type": "function"
    },
    {
      "inputs": [],
      "name": "name",
      "outputs": [
        {
          "internalType": "string",
          "name": "",
          "type": "string"
        }
      ],
      "stateMutability": "view",
      "type": "function"
    },
    {
      "inputs": [
        {
          "internalType": "uint256",
          "name": "tokenId",
          "type": "uint256"
        }
      ],
      "name": "ownerOf",
      "outputs": [
        {
          "internalType": "address",
          "name": "",
          "type": "address"
        }
      ],
      "stateMutability": "view",
      "type": "function"
    },
    {
      "inputs": [
        {
          "internalType": "address",
          "name": "to",
          "type": "address"
        },
        {
          "internalType": "uint256",
          "name": "quantity",
          "type": "uint256"
        }
      ],
      "name": "safeMint",
      "outputs": [],
      "stateMutability": "nonpayable",
      "type": "function"
    },
    {
      "inputs": [
        {
          "internalType": "address",
          "name": "from",
          "type": "address"
        },
        {
          "internalType": "address",
          "name": "to",
          "type": "address"
        },
        {
          "internalType": "uint256",
          "name": "tokenId",
          "type": "uint256"
        }
      ],
      "name": "safeTransferFrom",
      "outputs": [],
      "stateMutability": "nonpayable",
      "type": "function"
    },
    {
      "inputs": [
        {
          "internalType": "address",
          "name": "from",
          "type": "address"
        },
        {
          "internalType": "address",
          "name": "to",
          "type": "address"
        },
        {
          "internalType": "uint256",
          "name": "tokenId",
          "type": "uint256"
        },
        {
          "internalType": "bytes",
          "name": "_data",
          "type": "bytes"
        }
      ],
      "name": "safeTransferFrom",
      "outputs": [],
      "stateMutability": "nonpayable",
      "type": "function"
    },
    {
      "inputs": [
        {
          "internalType": "address",
          "name": "operator",
          "type": "address"
        },
        {
          "internalType": "bool",
          "name": "approved",
          "type": "bool"
        }
      ],
      "name": "setApprovalForAll",
      "outputs": [],
      "stateMutability": "nonpayable",
      "type": "function"
    },
    {
      "inputs": [],
      "name": "startTokenId",
      "outputs": [
        {
          "internalType": "uint256",
          "name": "",
          "type": "uint256"
        }
      ],
      "stateMutability": "view",
      "type": "function"
    },
    {
      "inputs": [
        {
          "internalType": "bytes4",
          "name": "interfaceId",
          "type": "bytes4"
        }
      ],
      "name": "supportsInterface",
      "outputs": [
        {
          "internalType": "bool",
          "name": "",
          "type": "bool"
        }
      ],
      "stateMutability": "view",
      "type": "function"
    },
    {
      "inputs": [],
      "name": "symbol",
      "outputs": [
        {
          "internalType": "string",
          "name": "",
          "type": "string"
        }
      ],
      "stateMutability": "view",
      "type": "function"
    },
    {
      "inputs": [
        {
          "internalType": "uint256",
          "name": "tokenId",
          "type": "uint256"
        }
      ],
      "name": "tokenURI",
      "outputs": [
        {
          "internalType": "string",
          "name": "",
          "type": "string"
        }
      ],
      "stateMutability": "view",
      "type": "function"
    },
    {
      "inputs": [
        {
          "internalType": "address",
          "name": "owner",
          "type": "address"
        }
      ],
      "name": "tokensOfOwner",
      "outputs": [
        {
          "internalType": "uint256[]",
          "name": "",
          "type": "uint256[]"
        }
      ],
      "stateMutability": "view",
      "type": "function"
    },
    {
      "inputs": [
        {
          "internalType": "address",
          "name": "owner",
          "type": "address"
        },
        {
          "internalType": "uint256",
          "name": "start",
          "type": "uint256"
        },
        {
          "internalType": "uint256",
          "name": "stop",
          "type": "uint256"
        }
      ],
      "name": "tokensOfOwnerIn",
      "outputs": [
        {
          "internalType": "uint256[]",
          "name": "",
          "type": "uint256[]"
        }
      ],
      "stateMutability": "view",
      "type": "function"
    },
    {
      "inputs": [],
      "name": "totalSupply",
      "outputs": [
        {
          "internalType": "uint256",
          "name": "",
          "type": "uint256"
        }
      ],
      "stateMutability": "view",
      "type": "function"
    },
    {
      "inputs": [
        {
          "internalType": "address",
          "name": "from",
          "type": "address"
        },
        {
          "internalType": "address",
          "name": "to",
          "type": "address"
        },
        {
          "internalType": "uint256",
          "name": "tokenId",
          "type": "uint256"
        }
      ],
      "name": "transferFrom",
      "outputs": [],
      "stateMutability": "nonpayable",
      "type": "function"
    }
  ],
  "bytecode": "0x60806040523480156200001157600080fd5b5060405162001a5038038062001a508339810160408190526200003491620001f4565b6000819055825183908390829082906200005690600390602085019062000081565b5080516200006c90600490602084019062000081565b5060005460015550620002a495505050505050565b8280546200008f9062000267565b90600052602060002090601f016020900481019282620000b35760008555620000fe565b82601f10620000ce57805160ff1916838001178555620000fe565b82800160010185558215620000fe579182015b82811115620000fe578251825591602001919060010190620000e1565b506200010c92915062000110565b5090565b5b808211156200010c576000815560010162000111565b634e487b7160e01b600052604160045260246000fd5b600082601f8301126200014f57600080fd5b81516001600160401b03808211156200016c576200016c62000127565b604051601f8301601f19908116603f0116810190828211818310171562000197576200019762000127565b81604052838152602092508683858801011115620001b457600080fd5b600091505b83821015620001d85785820183015181830184015290820190620001b9565b83821115620001ea5760008385830101525b9695505050505050565b6000806000606084860312156200020a57600080fd5b83516001600160401b03808211156200022257600080fd5b62000230878388016200013d565b945060208601519150808211156200024757600080fd5b5062000256868287016200013d565b925050604084015190509250925092565b600181811c908216806200027c57607f821691505b602082108114156200029e57634e487b7160e01b600052602260045260246000fd5b50919050565b61179c80620002b46000396000f3fe608060405234801561001057600080fd5b50600436106101375760003560e01c806370a08231116100b8578063a22cb4651161007c578063a22cb465146102a0578063b88d4fde146102b3578063c23dc68f146102c6578063c87b56dd146102e6578063e6798baa146102f9578063e985e9c51461030257600080fd5b806370a082311461023f5780638462151c1461025257806395d89b411461027257806399a2557a1461027a578063a14481941461028d57600080fd5b806323b872dd116100ff57806323b872dd146101d357806342842e0e146101e657806342966c68146101f95780635bbb21771461020c5780636352211e1461022c57600080fd5b806301ffc9a71461013c57806306fdde0314610164578063081812fc14610179578063095ea7b3146101a457806318160ddd146101b9575b600080fd5b61014f61014a366004611226565b610315565b60405190151581526020015b60405180910390f35b61016c610367565b60405161015b919061129b565b61018c6101873660046112ae565b6103f9565b6040516001600160a01b03909116815260200161015b565b6101b76101b23660046112e3565b61043d565b005b60005460025460015403035b60405190815260200161015b565b6101b76101e136600461130d565b6104dd565b6101b76101f436600461130d565b6104ed565b6101b76102073660046112ae565b610508565b61021f61021a366004611390565b610516565b60405161015b9190611436565b61018c61023a3660046112ae565b6105dd565b6101c561024d3660046114a1565b6105e8565b6102656102603660046114a1565b61062e565b60405161015b91906114bc565b61016c610738565b6102656102883660046114f4565b610747565b6101b761029b3660046112e3565b6108db565b6101b76102ae366004611527565b6108e9565b6101b76102c1366004611563565b61097f565b6102d96102d43660046112ae565b6109c9565b60405161015b9190611623565b61016c6102f43660046112ae565b610a44565b6101c560005481565b61014f610310366004611659565b610ad5565b60006301ffc9a760e01b6001600160e01b03198316148061034657506380ac58cd60e01b6001600160e01b03198316145b806103615750635b5e139f60e01b6001600160e01b03198316145b92915050565b6060600380546103769061168c565b80601f01602080910402602001604051908101604052809291908181526020018280546103a29061168c565b80156103ef5780601f106103c4576101008083540402835291602001916103ef565b820191906000526020600020905b8154815290600101906020018083116103d257829003601f168201915b5050505050905090565b600061040482610b03565b610421576040516333d1c03960e21b815260040160405180910390fd5b506000908152600760205260409020546001600160a01b031690565b600061044882610b3f565b9050336001600160a01b03821614610481576104648133610ad5565b610481576040516367d9dca160e11b815260040160405180910390fd5b60008281526007602052604080822080546001600160a01b0319166001600160a01b0387811691821790925591518593918516917f8c5be1e5ebec7d5bd14f71427d1e84f3dd0314c0f7b2291e5b200ac8c7c3b92591a4505050565b6104e8838383610baf565b505050565b6104e88383836040518060200160405280600081525061097f565b610513816001610d5f565b50565b805160609060008167ffffffffffffffff81111561053657610536611349565b60405190808252806020026020018201604052801561058157816020015b60408051606081018252600080825260208083018290529282015282526000199092019101816105545790505b50905060005b8281146105d5576105b08582815181106105a3576105a36116c7565b60200260200101516109c9565b8282815181106105c2576105c26116c7565b6020908102919091010152600101610587565b509392505050565b600061036182610b3f565b600081610608576040516323d3ad8160e21b815260040160405180910390fd5b506001600160a01b031660009081526006602052604090205467ffffffffffffffff1690565b6060600080600061063e856105e8565b905060008167ffffffffffffffff81111561065b5761065b611349565b604051908082528060200260200182016040528015610684578160200160208202803683370190505b5090506106aa604080516060810182526000808252602082018190529181019190915290565b6000545b83861461072c576106be81610ed3565b91508160400151156106cf57610724565b81516001600160a01b0316156106e457815194505b876001600160a01b0316856001600160a01b031614156107245780838780600101985081518110610717576107176116c7565b6020026020010181815250505b6001016106ae565b50909695505050505050565b6060600480546103769061168c565b606081831061076957604051631960ccad60e11b815260040160405180910390fd5b60008061077560015490565b905061078060005490565b85101561078d5760005494505b80841115610799578093505b60006107a4876105e8565b9050848610156107c357858503818110156107bd578091505b506107c7565b5060005b60008167ffffffffffffffff8111156107e2576107e2611349565b60405190808252806020026020018201604052801561080b578160200160208202803683370190505b5090508161081e5793506108d492505050565b6000610829886109c9565b90506000816040015161083a575080515b885b88811415801561084c5750848714155b156108c85761085a81610ed3565b925082604001511561086b576108c0565b82516001600160a01b03161561088057825191505b8a6001600160a01b0316826001600160a01b031614156108c057808488806001019950815181106108b3576108b36116c7565b6020026020010181815250505b60010161083c565b50505092835250909150505b9392505050565b6108e58282610f08565b5050565b6001600160a01b0382163314156109135760405163b06307db60e01b815260040160405180910390fd5b3360008181526008602090815260408083206001600160a01b03871680855290835292819020805460ff191686151590811790915590519081529192917f17307eab39ab6107e8899845ad3d59bd9653f200f220920489ca2b5937696c31910160405180910390a35050565b61098a848484610baf565b6001600160a01b0383163b156109c3576109a684848484610f22565b6109c3576040516368d2bf6b60e11b815260040160405180910390fd5b50505050565b60408051606081018252600080825260208201819052918101919091526040805160608101825260008082526020820181905291810191909152600054831080610a1557506001548310155b15610a205792915050565b610a2983610ed3565b9050806040015115610a3b5792915050565b6108d483611019565b6060610a4f82610b03565b610a6c57604051630a14c4b560e41b815260040160405180910390fd5b6000610a8360408051602081019091526000815290565b9050805160001415610aa457604051806020016040528060008152506108d4565b80610aae84611047565b604051602001610abf9291906116dd565b6040516020818303038152906040529392505050565b6001600160a01b03918216600090815260086020908152604080832093909416825291909152205460ff1690565b600081610b0f60005490565b11158015610b1e575060015482105b8015610361575050600090815260056020526040902054600160e01b161590565b60008180610b4c60005490565b11610b9657600154811015610b9657600081815260056020526040902054600160e01b8116610b94575b806108d4575060001901600081815260056020526040902054610b76565b505b604051636f96cda160e11b815260040160405180910390fd5b6000610bba82610b3f565b9050836001600160a01b0316816001600160a01b031614610bed5760405162a1148160e81b815260040160405180910390fd5b6000828152600760205260408120546001600160a01b0390811691908616331480610c1d5750610c1d8633610ad5565b80610c3057506001600160a01b03821633145b905080610c5057604051632ce44b5f60e11b815260040160405180910390fd5b84610c6e57604051633a954ecd60e21b815260040160405180910390fd5b8115610c9157600084815260076020526040902080546001600160a01b03191690555b6001600160a01b03868116600090815260066020908152604080832080546000190190559288168252828220805460010190558682526005905220600160e11b4260a01b871781179091558316610d165760018401600081815260056020526040902054610d14576001548114610d145760008181526005602052604090208490555b505b83856001600160a01b0316876001600160a01b03167fddf252ad1be2c89b69c2b068fc378daa952ba7f163c4a11628f55a4df523b3ef60405160405180910390a4505050505050565b6000610d6a83610b3f565b60008481526007602052604090205490915081906001600160a01b03168315610de0576000336001600160a01b0384161480610dab5750610dab8333610ad5565b80610dbe57506001600160a01b03821633145b905080610dde57604051632ce44b5f60e11b815260040160405180910390fd5b505b8015610e0357600085815260076020526040902080546001600160a01b03191690555b6001600160a01b038216600090815260066020908152604080832080546fffffffffffffffffffffffffffffffff01905587835260059091529020600360e01b4260a01b8417179055600160e11b8316610e8b5760018501600081815260056020526040902054610e89576001548114610e895760008181526005602052604090208490555b505b60405185906000906001600160a01b038516907fddf252ad1be2c89b69c2b068fc378daa952ba7f163c4a11628f55a4df523b3ef908390a45050600280546001019055505050565b604080516060810182526000808252602082018190529181019190915260008281526005602052604090205461036190611096565b6108e58282604051806020016040528060008152506110d1565b604051630a85bd0160e11b81526000906001600160a01b0385169063150b7a0290610f5790339089908890889060040161170c565b602060405180830381600087803b158015610f7157600080fd5b505af1925050508015610fa1575060408051601f3d908101601f19168201909252610f9e91810190611749565b60015b610ffc573d808015610fcf576040519150601f19603f3d011682016040523d82523d6000602084013e610fd4565b606091505b508051610ff4576040516368d2bf6b60e11b815260040160405180910390fd5b805181602001fd5b6001600160e01b031916630a85bd0160e11b149050949350505050565b604080516060810182526000808252602082018190529181019190915261036161104283610b3f565b611096565b604080516080810191829052607f0190826030600a8206018353600a90045b801561108457600183039250600a81066030018353600a9004611066565b50819003601f19909101908152919050565b604080516060810182526001600160a01b038316815260a083901c67ffffffffffffffff166020820152600160e01b90921615159082015290565b6110db838361113e565b6001600160a01b0383163b156104e8576001548281035b6111056000868380600101945086610f22565b611122576040516368d2bf6b60e11b815260040160405180910390fd5b8181106110f257816001541461113757600080fd5b5050505050565b6001548261115e57604051622e076360e81b815260040160405180910390fd5b8161117c5760405163b562e8dd60e01b815260040160405180910390fd5b6001600160a01b03831660009081526006602090815260408083208054680100000000000000018702019055838352600590915281204260a01b85176001851460e11b1790555b60405160018201918301906001600160a01b038616906000907fddf252ad1be2c89b69c2b068fc378daa952ba7f163c4a11628f55a4df523b3ef908290a48281106111c357500160015550565b6001600160e01b03198116811461051357600080fd5b60006020828403121561123857600080fd5b81356108d481611210565b60005b8381101561125e578181015183820152602001611246565b838111156109c35750506000910152565b60008151808452611287816020860160208601611243565b601f01601f19169290920160200192915050565b6020815260006108d4602083018461126f565b6000602082840312156112c057600080fd5b5035919050565b80356001600160a01b03811681146112de57600080fd5b919050565b600080604083850312156112f657600080fd5b6112ff836112c7565b946020939093013593505050565b60008060006060848603121561132257600080fd5b61132b846112c7565b9250611339602085016112c7565b9150604084013590509250925092565b634e487b7160e01b600052604160045260246000fd5b604051601f8201601f1916810167ffffffffffffffff8111828210171561138857611388611349565b604052919050565b600060208083850312156113a357600080fd5b823567ffffffffffffffff808211156113bb57600080fd5b818501915085601f8301126113cf57600080fd5b8135818111156113e1576113e1611349565b8060051b91506113f284830161135f565b818152918301840191848101908884111561140c57600080fd5b938501935b8385101561142a57843582529385019390850190611411565b98975050505050505050565b6020808252825182820181905260009190848201906040850190845b8181101561072c5761148e83855180516001600160a01b0316825260208082015167ffffffffffffffff16908301526040908101511515910152565b9284019260609290920191600101611452565b6000602082840312156114b357600080fd5b6108d4826112c7565b6020808252825182820181905260009190848201906040850190845b8181101561072c578351835292840192918401916001016114d8565b60008060006060848603121561150957600080fd5b611512846112c7565b95602085013595506040909401359392505050565b6000806040838503121561153a57600080fd5b611543836112c7565b91506020830135801515811461155857600080fd5b809150509250929050565b6000806000806080858703121561157957600080fd5b611582856112c7565b935060206115918187016112c7565b935060408601359250606086013567ffffffffffffffff808211156115b557600080fd5b818801915088601f8301126115c957600080fd5b8135818111156115db576115db611349565b6115ed601f8201601f1916850161135f565b9150808252898482850101111561160357600080fd5b808484018584013760008482840101525080935050505092959194509250565b81516001600160a01b0316815260208083015167ffffffffffffffff169082015260408083015115159082015260608101610361565b6000806040838503121561166c57600080fd5b611675836112c7565b9150611683602084016112c7565b90509250929050565b600181811c908216806116a057607f821691505b602082108114156116c157634e487b7160e01b600052602260045260246000fd5b50919050565b634e487b7160e01b600052603260045260246000fd5b600083516116ef818460208801611243565b835190830190611703818360208801611243565b01949350505050565b6001600160a01b038581168252841660208201526040810183905260806060820181905260009061173f9083018461126f565b9695505050505050565b60006020828403121561175b57600080fd5b81516108d48161121056fea2646970667358221220bbc5d2e70a0327df0f16b0deac8a78bb863c0c62b3bab3ad048b9e2f9119526164736f6c63430008090033",
  "linkReferences": {},
  "deployedLinkReferences": {}
}