{
  "_format": "hh-sol-artifact-1",
  "contractName": "ERC721ABurnableStartTokenIdMock",
  "sourceName": "contracts/ERC721A/mocks/ERC721ABurnableStartTokenIdMock.sol",
  "abi": [
    {
      "inputs": [
        {
          "internalType": "string",
          "name": "name_",
          "type": "string"
        },
        {
          "internalType": "string",
          "name": "symbol_",
          "type": "string"
        },
        {
          "internalType": "uint256",
          "name": "startTokenId_",
          "type": "uint256"
        }
      ],
      "stateMutability": "nonpayable",
      "type": "constructor"
    },
    {
      "inputs": [],
      "name": "ApprovalCallerNotOwnerNorApproved",
      "type": "error"
    },
    {
      "inputs": [],
      "name": "ApprovalQueryForNonexistentToken",
      "type": "error"
    },
    {
      "inputs": [],
      "name": "ApproveToCaller",
      "type": "error"
    },
    {
      "inputs": [],
      "name": "BalanceQueryForZeroAddress",
      "type": "error"
    },
    {
      "inputs": [],
      "name": "MintToZeroAddress",
      "type": "error"
    },
    {
      "inputs": [],
      "name": "MintZeroQuantity",
      "type": "error"
    },
    {
      "inputs": [],
      "name": "OwnerQueryForNonexistentToken",
      "type": "error"
    },
    {
      "inputs": [],
      "name": "TransferCallerNotOwnerNorApproved",
      "type": "error"
    },
    {
      "inputs": [],
      "name": "TransferFromIncorrectOwner",
      "type": "error"
    },
    {
      "inputs": [],
      "name": "TransferToNonERC721ReceiverImplementer",
      "type": "error"
    },
    {
      "inputs": [],
      "name": "TransferToZeroAddress",
      "type": "error"
    },
    {
      "inputs": [],
      "name": "URIQueryForNonexistentToken",
      "type": "error"
    },
    {
      "anonymous": false,
      "inputs": [
        {
          "indexed": true,
          "internalType": "address",
          "name": "owner",
          "type": "address"
        },
        {
          "indexed": true,
          "internalType": "address",
          "name": "approved",
          "type": "address"
        },
        {
          "indexed": true,
          "internalType": "uint256",
          "name": "tokenId",
          "type": "uint256"
        }
      ],
      "name": "Approval",
      "type": "event"
    },
    {
      "anonymous": false,
      "inputs": [
        {
          "indexed": true,
          "internalType": "address",
          "name": "owner",
          "type": "address"
        },
        {
          "indexed": true,
          "internalType": "address",
          "name": "operator",
          "type": "address"
        },
        {
          "indexed": false,
          "internalType": "bool",
          "name": "approved",
          "type": "bool"
        }
      ],
      "name": "ApprovalForAll",
      "type": "event"
    },
    {
      "anonymous": false,
      "inputs": [
        {
          "indexed": true,
          "internalType": "address",
          "name": "from",
          "type": "address"
        },
        {
          "indexed": true,
          "internalType": "address",
          "name": "to",
          "type": "address"
        },
        {
          "indexed": true,
          "internalType": "uint256",
          "name": "tokenId",
          "type": "uint256"
        }
      ],
      "name": "Transfer",
      "type": "event"
    },
    {
      "inputs": [
        {
          "internalType": "address",
          "name": "to",
          "type": "address"
        },
        {
          "internalType": "uint256",
          "name": "tokenId",
          "type": "uint256"
        }
      ],
      "name": "approve",
      "outputs": [],
      "stateMutability": "nonpayable",
      "type": "function"
    },
    {
      "inputs": [
        {
          "internalType": "address",
          "name": "owner",
          "type": "address"
        }
      ],
      "name": "balanceOf",
      "outputs": [
        {
          "internalType": "uint256",
          "name": "",
          "type": "uint256"
        }
      ],
      "stateMutability": "view",
      "type": "function"
    },
    {
      "inputs": [
        {
          "internalType": "uint256",
          "name": "tokenId",
          "type": "uint256"
        }
      ],
      "name": "burn",
      "outputs": [],
      "stateMutability": "nonpayable",
      "type": "function"
    },
    {
      "inputs": [
        {
          "internalType": "uint256",
          "name": "tokenId",
          "type": "uint256"
        }
      ],
      "name": "exists",
      "outputs": [
        {
          "internalType": "bool",
          "name": "",
          "type": "bool"
        }
      ],
      "stateMutability": "view",
      "type": "function"
    },
    {
      "inputs": [
        {
          "internalType": "uint256",
          "name": "tokenId",
          "type": "uint256"
        }
      ],
      "name": "getApproved",
      "outputs": [
        {
          "internalType": "address",
          "name": "",
          "type": "address"
        }
      ],
      "stateMutability": "view",
      "type": "function"
    },
    {
      "inputs": [
        {
          "internalType": "uint256",
          "name": "index",
          "type": "uint256"
        }
      ],
      "name": "getOwnershipAt",
      "outputs": [
        {
          "components": [
            {
              "internalType": "address",
              "name": "addr",
              "type": "address"
            },
            {
              "internalType": "uint64",
              "name": "startTimestamp",
              "type": "uint64"
            },
            {
              "internalType": "bool",
              "name": "burned",
              "type": "bool"
            }
          ],
          "internalType": "struct IERC721A.TokenOwnership",
          "name": "",
          "type": "tuple"
        }
      ],
      "stateMutability": "view",
      "type": "function"
    },
    {
      "inputs": [
        {
          "internalType": "address",
          "name": "owner",
          "type": "address"
        },
        {
          "internalType": "address",
          "name": "operator",
          "type": "address"
        }
      ],
      "name": "isApprovedForAll",
      "outputs": [
        {
          "internalType": "bool",
          "name": "",
          "type": "bool"
        }
      ],
      "stateMutability": "view",
      "type": "function"
    },
    {
      "inputs": [],
      "name": "name",
      "outputs": [
        {
          "internalType": "string",
          "name": "",
          "type": "string"
        }
      ],
      "stateMutability": "view",
      "type": "function"
    },
    {
      "inputs": [
        {
          "internalType": "address",
          "name": "owner",
          "type": "address"
        }
      ],
      "name": "numberBurned",
      "outputs": [
        {
          "internalType": "uint256",
          "name": "",
          "type": "uint256"
        }
      ],
      "stateMutability": "view",
      "type": "function"
    },
    {
      "inputs": [
        {
          "internalType": "uint256",
          "name": "tokenId",
          "type": "uint256"
        }
      ],
      "name": "ownerOf",
      "outputs": [
        {
          "internalType": "address",
          "name": "",
          "type": "address"
        }
      ],
      "stateMutability": "view",
      "type": "function"
    },
    {
      "inputs": [
        {
          "internalType": "address",
          "name": "to",
          "type": "address"
        },
        {
          "internalType": "uint256",
          "name": "quantity",
          "type": "uint256"
        }
      ],
      "name": "safeMint",
      "outputs": [],
      "stateMutability": "nonpayable",
      "type": "function"
    },
    {
      "inputs": [
        {
          "internalType": "address",
          "name": "from",
          "type": "address"
        },
        {
          "internalType": "address",
          "name": "to",
          "type": "address"
        },
        {
          "internalType": "uint256",
          "name": "tokenId",
          "type": "uint256"
        }
      ],
      "name": "safeTransferFrom",
      "outputs": [],
      "stateMutability": "nonpayable",
      "type": "function"
    },
    {
      "inputs": [
        {
          "internalType": "address",
          "name": "from",
          "type": "address"
        },
        {
          "internalType": "address",
          "name": "to",
          "type": "address"
        },
        {
          "internalType": "uint256",
          "name": "tokenId",
          "type": "uint256"
        },
        {
          "internalType": "bytes",
          "name": "_data",
          "type": "bytes"
        }
      ],
      "name": "safeTransferFrom",
      "outputs": [],
      "stateMutability": "nonpayable",
      "type": "function"
    },
    {
      "inputs": [
        {
          "internalType": "address",
          "name": "operator",
          "type": "address"
        },
        {
          "internalType": "bool",
          "name": "approved",
          "type": "bool"
        }
      ],
      "name": "setApprovalForAll",
      "outputs": [],
      "stateMutability": "nonpayable",
      "type": "function"
    },
    {
      "inputs": [],
      "name": "startTokenId",
      "outputs": [
        {
          "internalType": "uint256",
          "name": "",
          "type": "uint256"
        }
      ],
      "stateMutability": "view",
      "type": "function"
    },
    {
      "inputs": [
        {
          "internalType": "bytes4",
          "name": "interfaceId",
          "type": "bytes4"
        }
      ],
      "name": "supportsInterface",
      "outputs": [
        {
          "internalType": "bool",
          "name": "",
          "type": "bool"
        }
      ],
      "stateMutability": "view",
      "type": "function"
    },
    {
      "inputs": [],
      "name": "symbol",
      "outputs": [
        {
          "internalType": "string",
          "name": "",
          "type": "string"
        }
      ],
      "stateMutability": "view",
      "type": "function"
    },
    {
      "inputs": [
        {
          "internalType": "uint256",
          "name": "tokenId",
          "type": "uint256"
        }
      ],
      "name": "tokenURI",
      "outputs": [
        {
          "internalType": "string",
          "name": "",
          "type": "string"
        }
      ],
      "stateMutability": "view",
      "type": "function"
    },
    {
      "inputs": [],
      "name": "totalBurned",
      "outputs": [
        {
          "internalType": "uint256",
          "name": "",
          "type": "uint256"
        }
      ],
      "stateMutability": "view",
      "type": "function"
    },
    {
      "inputs": [],
      "name": "totalMinted",
      "outputs": [
        {
          "internalType": "uint256",
          "name": "",
          "type": "uint256"
        }
      ],
      "stateMutability": "view",
      "type": "function"
    },
    {
      "inputs": [],
      "name": "totalSupply",
      "outputs": [
        {
          "internalType": "uint256",
          "name": "",
          "type": "uint256"
        }
      ],
      "stateMutability": "view",
      "type": "function"
    },
    {
      "inputs": [
        {
          "internalType": "address",
          "name": "from",
          "type": "address"
        },
        {
          "internalType": "address",
          "name": "to",
          "type": "address"
        },
        {
          "internalType": "uint256",
          "name": "tokenId",
          "type": "uint256"
        }
      ],
      "name": "transferFrom",
      "outputs": [],
      "stateMutability": "nonpayable",
      "type": "function"
    }
  ],
  "bytecode": "0x60806040523480156200001157600080fd5b50604051620014e7380380620014e78339810160408190526200003491620001f4565b6000819055825183908390829082906200005690600390602085019062000081565b5080516200006c90600490602084019062000081565b5060005460015550620002a495505050505050565b8280546200008f9062000267565b90600052602060002090601f016020900481019282620000b35760008555620000fe565b82601f10620000ce57805160ff1916838001178555620000fe565b82800160010185558215620000fe579182015b82811115620000fe578251825591602001919060010190620000e1565b506200010c92915062000110565b5090565b5b808211156200010c576000815560010162000111565b634e487b7160e01b600052604160045260246000fd5b600082601f8301126200014f57600080fd5b81516001600160401b03808211156200016c576200016c62000127565b604051601f8301601f19908116603f0116810190828211818310171562000197576200019762000127565b81604052838152602092508683858801011115620001b457600080fd5b600091505b83821015620001d85785820183015181830184015290820190620001b9565b83821115620001ea5760008385830101525b9695505050505050565b6000806000606084860312156200020a57600080fd5b83516001600160401b03808211156200022257600080fd5b62000230878388016200013d565b945060208601519150808211156200024757600080fd5b5062000256868287016200013d565b925050604084015190509250925092565b600181811c908216806200027c57607f821691505b602082108114156200029e57634e487b7160e01b600052602260045260246000fd5b50919050565b61123380620002b46000396000f3fe608060405234801561001057600080fd5b50600436106101425760003560e01c806370a08231116100b8578063b88d4fde1161007c578063b88d4fde1461029d578063c87b56dd146102b0578063d89135cd146102c3578063e6798baa146102cb578063e985e9c5146102d4578063f25236331461031057600080fd5b806370a082311461025057806395d89b4114610263578063a14481941461026b578063a22cb4651461027e578063a2309ff81461029157600080fd5b806323b872dd1161010a57806323b872dd146101de5780632478d639146101f157806342842e0e1461020457806342966c68146102175780634f558e791461022a5780636352211e1461023d57600080fd5b806301ffc9a71461014757806306fdde031461016f578063081812fc14610184578063095ea7b3146101af57806318160ddd146101c4575b600080fd5b61015a610155366004610e9a565b61035a565b60405190151581526020015b60405180910390f35b6101776103ac565b6040516101669190610f0f565b610197610192366004610f22565b61043e565b6040516001600160a01b039091168152602001610166565b6101c26101bd366004610f57565b610482565b005b60005460025460015403035b604051908152602001610166565b6101c26101ec366004610f81565b610522565b6101d06101ff366004610fbd565b610532565b6101c2610212366004610f81565b610560565b6101c2610225366004610f22565b61057b565b61015a610238366004610f22565b610589565b61019761024b366004610f22565b610594565b6101d061025e366004610fbd565b61059f565b6101776105e5565b6101c2610279366004610f57565b6105f4565b6101c261028c366004610fd8565b610602565b600054600154036101d0565b6101c26102ab36600461102a565b61069d565b6101776102be366004610f22565b6106e7565b6101d0610779565b6101d060005481565b61015a6102e2366004611106565b6001600160a01b03918216600090815260086020908152604080832093909416825291909152205460ff1690565b61032361031e366004610f22565b610784565b6040805182516001600160a01b0316815260208084015167ffffffffffffffff169082015291810151151590820152606001610166565b60006301ffc9a760e01b6001600160e01b03198316148061038b57506380ac58cd60e01b6001600160e01b03198316145b806103a65750635b5e139f60e01b6001600160e01b03198316145b92915050565b6060600380546103bb90611139565b80601f01602080910402602001604051908101604052809291908181526020018280546103e790611139565b80156104345780601f1061040957610100808354040283529160200191610434565b820191906000526020600020905b81548152906001019060200180831161041757829003601f168201915b5050505050905090565b6000610449826107aa565b610466576040516333d1c03960e21b815260040160405180910390fd5b506000908152600760205260409020546001600160a01b031690565b600061048d826107e6565b9050336001600160a01b038216146104c6576104a981336102e2565b6104c6576040516367d9dca160e11b815260040160405180910390fd5b60008281526007602052604080822080546001600160a01b0319166001600160a01b0387811691821790925591518593918516917f8c5be1e5ebec7d5bd14f71427d1e84f3dd0314c0f7b2291e5b200ac8c7c3b92591a4505050565b61052d838383610856565b505050565b60006103a6826001600160a01b031660009081526006602052604090205460801c67ffffffffffffffff1690565b61052d8383836040518060200160405280600081525061069d565b610586816001610a06565b50565b60006103a6826107aa565b60006103a6826107e6565b6000816105bf576040516323d3ad8160e21b815260040160405180910390fd5b506001600160a01b031660009081526006602052604090205467ffffffffffffffff1690565b6060600480546103bb90611139565b6105fe8282610b7a565b5050565b6001600160a01b03821633141561062c5760405163b06307db60e01b815260040160405180910390fd5b3360008181526008602090815260408083206001600160a01b03871680855290835292819020805460ff191686151590811790915590519081529192917f17307eab39ab6107e8899845ad3d59bd9653f200f220920489ca2b5937696c31910160405180910390a35050565b905090565b6106a8848484610856565b6001600160a01b0383163b156106e1576106c484848484610b94565b6106e1576040516368d2bf6b60e11b815260040160405180910390fd5b50505050565b60606106f2826107aa565b61070f57604051630a14c4b560e41b815260040160405180910390fd5b600061072660408051602081019091526000815290565b90508051600014156107475760405180602001604052806000815250610772565b8061075184610c8b565b604051602001610762929190611174565b6040516020818303038152906040525b9392505050565b600061069860025490565b60408051606081018252600080825260208201819052918101919091526103a682610cda565b6000816107b660005490565b111580156107c5575060015482105b80156103a6575050600090815260056020526040902054600160e01b161590565b600081806107f360005490565b1161083d5760015481101561083d57600081815260056020526040902054600160e01b811661083b575b8061077257506000190160008181526005602052604090205461081d565b505b604051636f96cda160e11b815260040160405180910390fd5b6000610861826107e6565b9050836001600160a01b0316816001600160a01b0316146108945760405162a1148160e81b815260040160405180910390fd5b6000828152600760205260408120546001600160a01b03908116919086163314806108c457506108c486336102e2565b806108d757506001600160a01b03821633145b9050806108f757604051632ce44b5f60e11b815260040160405180910390fd5b8461091557604051633a954ecd60e21b815260040160405180910390fd5b811561093857600084815260076020526040902080546001600160a01b03191690555b6001600160a01b03868116600090815260066020908152604080832080546000190190559288168252828220805460010190558682526005905220600160e11b4260a01b8717811790915583166109bd57600184016000818152600560205260409020546109bb5760015481146109bb5760008181526005602052604090208490555b505b83856001600160a01b0316876001600160a01b03167fddf252ad1be2c89b69c2b068fc378daa952ba7f163c4a11628f55a4df523b3ef60405160405180910390a4505050505050565b6000610a11836107e6565b60008481526007602052604090205490915081906001600160a01b03168315610a87576000336001600160a01b0384161480610a525750610a5283336102e2565b80610a6557506001600160a01b03821633145b905080610a8557604051632ce44b5f60e11b815260040160405180910390fd5b505b8015610aaa57600085815260076020526040902080546001600160a01b03191690555b6001600160a01b038216600090815260066020908152604080832080546fffffffffffffffffffffffffffffffff01905587835260059091529020600360e01b4260a01b8417179055600160e11b8316610b325760018501600081815260056020526040902054610b30576001548114610b305760008181526005602052604090208490555b505b60405185906000906001600160a01b038516907fddf252ad1be2c89b69c2b068fc378daa952ba7f163c4a11628f55a4df523b3ef908390a45050600280546001019055505050565b6105fe828260405180602001604052806000815250610d45565b604051630a85bd0160e11b81526000906001600160a01b0385169063150b7a0290610bc99033908990889088906004016111a3565b602060405180830381600087803b158015610be357600080fd5b505af1925050508015610c13575060408051601f3d908101601f19168201909252610c10918101906111e0565b60015b610c6e573d808015610c41576040519150601f19603f3d011682016040523d82523d6000602084013e610c46565b606091505b508051610c66576040516368d2bf6b60e11b815260040160405180910390fd5b805181602001fd5b6001600160e01b031916630a85bd0160e11b149050949350505050565b604080516080810191829052607f0190826030600a8206018353600a90045b8015610cc857600183039250600a81066030018353600a9004610caa565b50819003601f19909101908152919050565b60408051606081018252600080825260208201819052918101919091526000828152600560205260409020546103a690604080516060810182526001600160a01b038316815260a083901c67ffffffffffffffff166020820152600160e01b90921615159082015290565b610d4f8383610db2565b6001600160a01b0383163b1561052d576001548281035b610d796000868380600101945086610b94565b610d96576040516368d2bf6b60e11b815260040160405180910390fd5b818110610d66578160015414610dab57600080fd5b5050505050565b60015482610dd257604051622e076360e81b815260040160405180910390fd5b81610df05760405163b562e8dd60e01b815260040160405180910390fd5b6001600160a01b03831660009081526006602090815260408083208054680100000000000000018702019055838352600590915281204260a01b85176001851460e11b1790555b60405160018201918301906001600160a01b038616906000907fddf252ad1be2c89b69c2b068fc378daa952ba7f163c4a11628f55a4df523b3ef908290a4828110610e3757500160015550565b6001600160e01b03198116811461058657600080fd5b600060208284031215610eac57600080fd5b813561077281610e84565b60005b83811015610ed2578181015183820152602001610eba565b838111156106e15750506000910152565b60008151808452610efb816020860160208601610eb7565b601f01601f19169290920160200192915050565b6020815260006107726020830184610ee3565b600060208284031215610f3457600080fd5b5035919050565b80356001600160a01b0381168114610f5257600080fd5b919050565b60008060408385031215610f6a57600080fd5b610f7383610f3b565b946020939093013593505050565b600080600060608486031215610f9657600080fd5b610f9f84610f3b565b9250610fad60208501610f3b565b9150604084013590509250925092565b600060208284031215610fcf57600080fd5b61077282610f3b565b60008060408385031215610feb57600080fd5b610ff483610f3b565b91506020830135801515811461100957600080fd5b809150509250929050565b634e487b7160e01b600052604160045260246000fd5b6000806000806080858703121561104057600080fd5b61104985610f3b565b935061105760208601610f3b565b925060408501359150606085013567ffffffffffffffff8082111561107b57600080fd5b818701915087601f83011261108f57600080fd5b8135818111156110a1576110a1611014565b604051601f8201601f19908116603f011681019083821181831017156110c9576110c9611014565b816040528281528a60208487010111156110e257600080fd5b82602086016020830137600060208483010152809550505050505092959194509250565b6000806040838503121561111957600080fd5b61112283610f3b565b915061113060208401610f3b565b90509250929050565b600181811c9082168061114d57607f821691505b6020821081141561116e57634e487b7160e01b600052602260045260246000fd5b50919050565b60008351611186818460208801610eb7565b83519083019061119a818360208801610eb7565b01949350505050565b6001600160a01b03858116825284166020820152604081018390526080606082018190526000906111d690830184610ee3565b9695505050505050565b6000602082840312156111f257600080fd5b815161077281610e8456fea26469706673582212207534a61901ba108e5afa4f8a38833c5c74ed2c71151a0679da63882150f6f72864736f6c63430008090033",
  "linkReferences": {},
  "deployedLinkReferences": {}
}